{
  "contractName": "BBronze",
  "abi": [
    {
      "constant": true,
      "inputs": [],
      "name": "getColor",
      "outputs": [
        {
          "internalType": "bytes32",
          "name": "",
          "type": "bytes32"
        }
      ],
      "payable": false,
      "stateMutability": "view",
      "type": "function"
    }
  ],
  "bytecode": "0x6080604052348015600f57600080fd5b5060ba8061001e6000396000f3fe6080604052348015600f57600080fd5b50600436106044577c010000000000000000000000000000000000000000000000000000000060003504639a86139b81146049575b600080fd5b604f6061565b60408051918252519081900360200190f35b7f42524f4e5a4500000000000000000000000000000000000000000000000000009056fea265627a7a723158206495350cea0d7c12d75ae9836782d42bbbfa78a26da77b33e9ae7ac7f9a444b364736f6c634300050c0032",
  "source": "// This program is free software: you can redistribute it and/or modify\n// it under the terms of the GNU General Public License as published by\n// the Free Software Foundation, either version 3 of the License, or\n// (at your option) any later version.\n\n// This program is distributed in the hope that it will be useful,\n// but WITHOUT ANY WARRANTY; without even the implied warranty of\n// MERCHANTABILITY or FITNESS FOR A PARTICULAR PURPOSE.  See the\n// GNU General Public License for more details.\n\n// You should have received a copy of the GNU General Public License\n// along with this program.  If not, see <http://www.gnu.org/licenses/>.\n\npragma solidity 0.5.12;\n\ncontract BColor {\n    function getColor()\n        external view\n        returns (bytes32);\n}\n\ncontract BBronze is BColor {\n    function getColor()\n        external view\n        returns (bytes32) {\n            return bytes32(\"BRONZE\");\n        }\n}\n",
  "sourcePath": "/Users/jerryfireman/Projects/pool-manager/contracts/BColor.sol",
  "compiler": {
    "name": "solc",
    "version": "0.5.12+commit.7709ece9.Emscripten.clang"
  },
  "schemaVersion": "3.1.0",
  "updatedAt": "2020-05-19T00:59:39.639Z",
  "devdoc": {
    "methods": {}
  },
  "userdoc": {
    "methods": {}
  }
}