{
  "contractName": "BMath",
  "abi": [
    {
      "constant": true,
      "inputs": [],
      "name": "BONE",
      "outputs": [
        {
          "internalType": "uint256",
          "name": "",
          "type": "uint256"
        }
      ],
      "payable": false,
      "stateMutability": "view",
      "type": "function"
    },
    {
      "constant": true,
      "inputs": [],
      "name": "BPOW_PRECISION",
      "outputs": [
        {
          "internalType": "uint256",
          "name": "",
          "type": "uint256"
        }
      ],
      "payable": false,
      "stateMutability": "view",
      "type": "function"
    },
    {
      "constant": true,
      "inputs": [],
      "name": "EXIT_FEE",
      "outputs": [
        {
          "internalType": "uint256",
          "name": "",
          "type": "uint256"
        }
      ],
      "payable": false,
      "stateMutability": "view",
      "type": "function"
    },
    {
      "constant": true,
      "inputs": [],
      "name": "INIT_POOL_SUPPLY",
      "outputs": [
        {
          "internalType": "uint256",
          "name": "",
          "type": "uint256"
        }
      ],
      "payable": false,
      "stateMutability": "view",
      "type": "function"
    },
    {
      "constant": true,
      "inputs": [],
      "name": "MAX_BOUND_TOKENS",
      "outputs": [
        {
          "internalType": "uint256",
          "name": "",
          "type": "uint256"
        }
      ],
      "payable": false,
      "stateMutability": "view",
      "type": "function"
    },
    {
      "constant": true,
      "inputs": [],
      "name": "MAX_BPOW_BASE",
      "outputs": [
        {
          "internalType": "uint256",
          "name": "",
          "type": "uint256"
        }
      ],
      "payable": false,
      "stateMutability": "view",
      "type": "function"
    },
    {
      "constant": true,
      "inputs": [],
      "name": "MAX_FEE",
      "outputs": [
        {
          "internalType": "uint256",
          "name": "",
          "type": "uint256"
        }
      ],
      "payable": false,
      "stateMutability": "view",
      "type": "function"
    },
    {
      "constant": true,
      "inputs": [],
      "name": "MAX_IN_RATIO",
      "outputs": [
        {
          "internalType": "uint256",
          "name": "",
          "type": "uint256"
        }
      ],
      "payable": false,
      "stateMutability": "view",
      "type": "function"
    },
    {
      "constant": true,
      "inputs": [],
      "name": "MAX_OUT_RATIO",
      "outputs": [
        {
          "internalType": "uint256",
          "name": "",
          "type": "uint256"
        }
      ],
      "payable": false,
      "stateMutability": "view",
      "type": "function"
    },
    {
      "constant": true,
      "inputs": [],
      "name": "MAX_TOTAL_WEIGHT",
      "outputs": [
        {
          "internalType": "uint256",
          "name": "",
          "type": "uint256"
        }
      ],
      "payable": false,
      "stateMutability": "view",
      "type": "function"
    },
    {
      "constant": true,
      "inputs": [],
      "name": "MAX_WEIGHT",
      "outputs": [
        {
          "internalType": "uint256",
          "name": "",
          "type": "uint256"
        }
      ],
      "payable": false,
      "stateMutability": "view",
      "type": "function"
    },
    {
      "constant": true,
      "inputs": [],
      "name": "MIN_BALANCE",
      "outputs": [
        {
          "internalType": "uint256",
          "name": "",
          "type": "uint256"
        }
      ],
      "payable": false,
      "stateMutability": "view",
      "type": "function"
    },
    {
      "constant": true,
      "inputs": [],
      "name": "MIN_BOUND_TOKENS",
      "outputs": [
        {
          "internalType": "uint256",
          "name": "",
          "type": "uint256"
        }
      ],
      "payable": false,
      "stateMutability": "view",
      "type": "function"
    },
    {
      "constant": true,
      "inputs": [],
      "name": "MIN_BPOW_BASE",
      "outputs": [
        {
          "internalType": "uint256",
          "name": "",
          "type": "uint256"
        }
      ],
      "payable": false,
      "stateMutability": "view",
      "type": "function"
    },
    {
      "constant": true,
      "inputs": [],
      "name": "MIN_FEE",
      "outputs": [
        {
          "internalType": "uint256",
          "name": "",
          "type": "uint256"
        }
      ],
      "payable": false,
      "stateMutability": "view",
      "type": "function"
    },
    {
      "constant": true,
      "inputs": [],
      "name": "MIN_WEIGHT",
      "outputs": [
        {
          "internalType": "uint256",
          "name": "",
          "type": "uint256"
        }
      ],
      "payable": false,
      "stateMutability": "view",
      "type": "function"
    },
    {
      "constant": true,
      "inputs": [],
      "name": "getColor",
      "outputs": [
        {
          "internalType": "bytes32",
          "name": "",
          "type": "bytes32"
        }
      ],
      "payable": false,
      "stateMutability": "view",
      "type": "function"
    },
    {
      "constant": true,
      "inputs": [
        {
          "internalType": "uint256",
          "name": "tokenBalanceIn",
          "type": "uint256"
        },
        {
          "internalType": "uint256",
          "name": "tokenWeightIn",
          "type": "uint256"
        },
        {
          "internalType": "uint256",
          "name": "tokenBalanceOut",
          "type": "uint256"
        },
        {
          "internalType": "uint256",
          "name": "tokenWeightOut",
          "type": "uint256"
        },
        {
          "internalType": "uint256",
          "name": "swapFee",
          "type": "uint256"
        }
      ],
      "name": "calcSpotPrice",
      "outputs": [
        {
          "internalType": "uint256",
          "name": "spotPrice",
          "type": "uint256"
        }
      ],
      "payable": false,
      "stateMutability": "pure",
      "type": "function"
    },
    {
      "constant": true,
      "inputs": [
        {
          "internalType": "uint256",
          "name": "tokenBalanceIn",
          "type": "uint256"
        },
        {
          "internalType": "uint256",
          "name": "tokenWeightIn",
          "type": "uint256"
        },
        {
          "internalType": "uint256",
          "name": "tokenBalanceOut",
          "type": "uint256"
        },
        {
          "internalType": "uint256",
          "name": "tokenWeightOut",
          "type": "uint256"
        },
        {
          "internalType": "uint256",
          "name": "tokenAmountIn",
          "type": "uint256"
        },
        {
          "internalType": "uint256",
          "name": "swapFee",
          "type": "uint256"
        }
      ],
      "name": "calcOutGivenIn",
      "outputs": [
        {
          "internalType": "uint256",
          "name": "tokenAmountOut",
          "type": "uint256"
        }
      ],
      "payable": false,
      "stateMutability": "pure",
      "type": "function"
    },
    {
      "constant": true,
      "inputs": [
        {
          "internalType": "uint256",
          "name": "tokenBalanceIn",
          "type": "uint256"
        },
        {
          "internalType": "uint256",
          "name": "tokenWeightIn",
          "type": "uint256"
        },
        {
          "internalType": "uint256",
          "name": "tokenBalanceOut",
          "type": "uint256"
        },
        {
          "internalType": "uint256",
          "name": "tokenWeightOut",
          "type": "uint256"
        },
        {
          "internalType": "uint256",
          "name": "tokenAmountOut",
          "type": "uint256"
        },
        {
          "internalType": "uint256",
          "name": "swapFee",
          "type": "uint256"
        }
      ],
      "name": "calcInGivenOut",
      "outputs": [
        {
          "internalType": "uint256",
          "name": "tokenAmountIn",
          "type": "uint256"
        }
      ],
      "payable": false,
      "stateMutability": "pure",
      "type": "function"
    },
    {
      "constant": true,
      "inputs": [
        {
          "internalType": "uint256",
          "name": "tokenBalanceIn",
          "type": "uint256"
        },
        {
          "internalType": "uint256",
          "name": "tokenWeightIn",
          "type": "uint256"
        },
        {
          "internalType": "uint256",
          "name": "poolSupply",
          "type": "uint256"
        },
        {
          "internalType": "uint256",
          "name": "totalWeight",
          "type": "uint256"
        },
        {
          "internalType": "uint256",
          "name": "tokenAmountIn",
          "type": "uint256"
        },
        {
          "internalType": "uint256",
          "name": "swapFee",
          "type": "uint256"
        }
      ],
      "name": "calcPoolOutGivenSingleIn",
      "outputs": [
        {
          "internalType": "uint256",
          "name": "poolAmountOut",
          "type": "uint256"
        }
      ],
      "payable": false,
      "stateMutability": "pure",
      "type": "function"
    },
    {
      "constant": true,
      "inputs": [
        {
          "internalType": "uint256",
          "name": "tokenBalanceIn",
          "type": "uint256"
        },
        {
          "internalType": "uint256",
          "name": "tokenWeightIn",
          "type": "uint256"
        },
        {
          "internalType": "uint256",
          "name": "poolSupply",
          "type": "uint256"
        },
        {
          "internalType": "uint256",
          "name": "totalWeight",
          "type": "uint256"
        },
        {
          "internalType": "uint256",
          "name": "poolAmountOut",
          "type": "uint256"
        },
        {
          "internalType": "uint256",
          "name": "swapFee",
          "type": "uint256"
        }
      ],
      "name": "calcSingleInGivenPoolOut",
      "outputs": [
        {
          "internalType": "uint256",
          "name": "tokenAmountIn",
          "type": "uint256"
        }
      ],
      "payable": false,
      "stateMutability": "pure",
      "type": "function"
    },
    {
      "constant": true,
      "inputs": [
        {
          "internalType": "uint256",
          "name": "tokenBalanceOut",
          "type": "uint256"
        },
        {
          "internalType": "uint256",
          "name": "tokenWeightOut",
          "type": "uint256"
        },
        {
          "internalType": "uint256",
          "name": "poolSupply",
          "type": "uint256"
        },
        {
          "internalType": "uint256",
          "name": "totalWeight",
          "type": "uint256"
        },
        {
          "internalType": "uint256",
          "name": "poolAmountIn",
          "type": "uint256"
        },
        {
          "internalType": "uint256",
          "name": "swapFee",
          "type": "uint256"
        }
      ],
      "name": "calcSingleOutGivenPoolIn",
      "outputs": [
        {
          "internalType": "uint256",
          "name": "tokenAmountOut",
          "type": "uint256"
        }
      ],
      "payable": false,
      "stateMutability": "pure",
      "type": "function"
    },
    {
      "constant": true,
      "inputs": [
        {
          "internalType": "uint256",
          "name": "tokenBalanceOut",
          "type": "uint256"
        },
        {
          "internalType": "uint256",
          "name": "tokenWeightOut",
          "type": "uint256"
        },
        {
          "internalType": "uint256",
          "name": "poolSupply",
          "type": "uint256"
        },
        {
          "internalType": "uint256",
          "name": "totalWeight",
          "type": "uint256"
        },
        {
          "internalType": "uint256",
          "name": "tokenAmountOut",
          "type": "uint256"
        },
        {
          "internalType": "uint256",
          "name": "swapFee",
          "type": "uint256"
        }
      ],
      "name": "calcPoolInGivenSingleOut",
      "outputs": [
        {
          "internalType": "uint256",
          "name": "poolAmountIn",
          "type": "uint256"
        }
      ],
      "payable": false,
      "stateMutability": "pure",
      "type": "function"
    }
  ],
  "bytecode": "0x608060405234801561001057600080fd5b50610e77806100206000396000f3fe608060405234801561001057600080fd5b5060043610610175576000357c010000000000000000000000000000000000000000000000000000000090048063a221ee49116100e0578063bc694ea211610099578063bc694ea214610348578063c36596a61461019c578063c6580d1214610350578063e4a28a521461017a578063ec09302114610358578063f8d6aed41461036057610175565b8063a221ee49146102b8578063b0e0d136146102ed578063b7b800a4146102f5578063ba019dab146102fd578063ba9530a614610305578063bc063e1a1461034057610175565b80638656b653116101325780638656b65314610222578063867378c51461025d57806389298012146102655780639381cd2b146102a0578063992e2a92146102a85780639a86139b146102b057610175565b806309a3bbe41461017a578063189d00ca14610194578063218b53821461019c5780635c1bbaf7146101a457806376c7a3c7146101df57806382f652ad146101e7575b600080fd5b61018261039b565b60408051918252519081900360200190f35b6101826103a8565b6101826103bc565b610182600480360360c08110156101ba57600080fd5b5080359060208101359060408101359060608101359060808101359060a001356103c8565b610182610480565b610182600480360360c08110156101fd57600080fd5b5080359060208101359060408101359060608101359060808101359060a00135610492565b610182600480360360c081101561023857600080fd5b5080359060208101359060408101359060608101359060808101359060a00135610551565b6101826105f2565b610182600480360360c081101561027b57600080fd5b5080359060208101359060408101359060608101359060808101359060a00135610606565b6101826106b6565b6101826106c3565b6101826106cf565b610182600480360360a08110156102ce57600080fd5b50803590602081013590604081013590606081013590608001356106f3565b610182610758565b61018261075d565b610182610762565b610182600480360360c081101561031b57600080fd5b5080359060208101359060408101359060608101359060808101359060a00135610767565b6101826107e8565b6101826107f8565b610182610804565b610182610809565b610182600480360360c081101561037657600080fd5b5080359060208101359060408101359060608101359060808101359060a00135610819565b6802b5e3af16b188000081565b6402540be400670de0b6b3a76400005b0481565b670de0b6b3a764000081565b6000806103d5878661089c565b905060006103e387866109e5565b905060006103f1828961089c565b90506000610407670de0b6b3a76400008561089c565b905060006104158383610a49565b90506000610423828e610b6c565b90506000610431828f610c4e565b9050600061045061044a670de0b6b3a76400008a610c4e565b8b610b6c565b905061046d82610468670de0b6b3a764000084610c4e565b61089c565b9f9e505050505050505050505050505050565b620f4240670de0b6b3a76400006103b8565b60008061049f878661089c565b905060006104b5670de0b6b3a764000083610c4e565b905060006104c38286610b6c565b905060006104dd87610468670de0b6b3a764000085610c4e565b905060006104eb8c83610c4e565b905060006104f9828e61089c565b905060006105078288610a49565b90506000610515828e610b6c565b905060006105238e83610c4e565b905061053c81610468670de0b6b3a76400006000610c4e565b99505050505050505050509695505050505050565b60008061055e878661089c565b9050600061057d610577670de0b6b3a764000084610c4e565b85610b6c565b9050600061059c86610597670de0b6b3a764000085610c4e565b610b6c565b905060006105aa8b836109e5565b905060006105b8828d61089c565b905060006105c68287610a49565b905060006105d4828d610b6c565b90506105e0818d610c4e565b9e9d5050505050505050505050505050565b64e8d4a51000670de0b6b3a76400006103b8565b600080610613878661089c565b9050600061062e85610597670de0b6b3a76400006000610c4e565b9050600061063c8883610c4e565b9050600061064a828a61089c565b9050600061066982610664670de0b6b3a76400008861089c565b610a49565b90506000610677828e610b6c565b905060006106858e83610c4e565b9050600061069e61044a670de0b6b3a76400008a610c4e565b905061046d82610597670de0b6b3a764000084610c4e565b68056bc75e2d6310000081565b6704a03ce68d21555681565b7f42524f4e5a45000000000000000000000000000000000000000000000000000090565b600080610700878761089c565b9050600061070e868661089c565b9050600061071c838361089c565b9050600061073e670de0b6b3a7640000610468670de0b6b3a764000089610c4e565b905061074a8282610b6c565b9a9950505050505050505050565b600881565b600281565b600181565b600080610774878661089c565b9050600061078a670de0b6b3a764000085610c4e565b90506107968582610b6c565b905060006107a88a6104688c856109e5565b905060006107b68285610a49565b905060006107cc670de0b6b3a764000083610c4e565b90506107d88a82610b6c565b9c9b505050505050505050505050565b600a670de0b6b3a76400006103b8565b671bc16d674ec7ffff81565b600081565b6002670de0b6b3a76400006103b8565b600080610826858861089c565b905060006108348786610c4e565b90506000610842888361089c565b905060006108508285610a49565b905061086481670de0b6b3a7640000610c4e565b9050610878670de0b6b3a764000087610c4e565b945061088d6108878c83610b6c565b8661089c565b9b9a5050505050505050505050565b6000816108f3576040805160e560020a62461bcd02815260206004820152600c60248201527f4552525f4449565f5a45524f0000000000000000000000000000000000000000604482015290519081900360640190fd5b670de0b6b3a7640000830283158061091b5750670de0b6b3a764000084828161091857fe5b04145b61096f576040805160e560020a62461bcd02815260206004820152601060248201527f4552525f4449565f494e5445524e414c00000000000000000000000000000000604482015290519081900360640190fd5b600283048101818110156109cd576040805160e560020a62461bcd02815260206004820152601060248201527f4552525f4449565f494e5445524e414c00000000000000000000000000000000604482015290519081900360640190fd5b60008482816109d857fe5b0493505050505b92915050565b600082820183811015610a42576040805160e560020a62461bcd02815260206004820152601060248201527f4552525f4144445f4f564552464c4f5700000000000000000000000000000000604482015290519081900360640190fd5b9392505050565b60006001831015610aa4576040805160e560020a62461bcd02815260206004820152601560248201527f4552525f42504f575f424153455f544f4f5f4c4f570000000000000000000000604482015290519081900360640190fd5b671bc16d674ec7ffff831115610b04576040805160e560020a62461bcd02815260206004820152601660248201527f4552525f42504f575f424153455f544f4f5f4849474800000000000000000000604482015290519081900360640190fd5b6000610b0f83610cbf565b90506000610b1d8483610c4e565b90506000610b3386610b2e85610cda565b610ce8565b905081610b445792506109df915050565b6000610b5587846305f5e100610d3f565b9050610b618282610b6c565b979650505050505050565b6000828202831580610b86575082848281610b8357fe5b04145b610bda576040805160e560020a62461bcd02815260206004820152601060248201527f4552525f4d554c5f4f564552464c4f5700000000000000000000000000000000604482015290519081900360640190fd5b6706f05b59d3b20000810181811015610c3d576040805160e560020a62461bcd02815260206004820152601060248201527f4552525f4d554c5f4f564552464c4f5700000000000000000000000000000000604482015290519081900360640190fd5b6000670de0b6b3a7640000826109d8565b6000806000610c5d8585610e1d565b915091508015610cb7576040805160e560020a62461bcd02815260206004820152601160248201527f4552525f5355425f554e444552464c4f57000000000000000000000000000000604482015290519081900360640190fd5b509392505050565b6000670de0b6b3a7640000610cd383610cda565b0292915050565b670de0b6b3a7640000900490565b60008060028306610d0157670de0b6b3a7640000610d03565b835b90506002830492505b8215610a4257610d1c8485610b6c565b93506002830615610d3457610d318185610b6c565b90505b600283049250610d0c565b6000828180610d5687670de0b6b3a7640000610e1d565b9092509050670de0b6b3a764000080600060015b888410610e0e576000670de0b6b3a764000082029050600080610d9e8a610d9985670de0b6b3a7640000610c4e565b610e1d565b91509150610db087610597848c610b6c565b9650610dbc878461089c565b965086610dcb57505050610e0e565b8715610dd5579315935b8015610ddf579315935b8415610df657610def8688610c4e565b9550610e03565b610e0086886109e5565b95505b505050600101610d6a565b50909998505050505050505050565b600080828410610e335750508082036000610e3b565b505081810360015b925092905056fea265627a7a723158205ada887de355afd4e50c6e1e5c870644c23d6305b7c4781c08fc1ee12738211a64736f6c634300050c0032",
  "source": "// This program is free software: you can redistribute it and/or modify\n// it under the terms of the GNU General Public License as published by\n// the Free Software Foundation, either version 3 of the License, or\n// (at your option) any later version.\n\n// This program is distributed in the hope that it will be useful,\n// but WITHOUT ANY WARRANTY; without even the implied warranty of\n// MERCHANTABILITY or FITNESS FOR A PARTICULAR PURPOSE.  See the\n// GNU General Public License for more details.\n\n// You should have received a copy of the GNU General Public License\n// along with this program.  If not, see <http://www.gnu.org/licenses/>.\n\npragma solidity 0.5.12;\n\nimport \"./BNum.sol\";\n\ncontract BMath is BBronze, BConst, BNum {\n    /**********************************************************************************************\n    // calcSpotPrice                                                                             //\n    // sP = spotPrice                                                                            //\n    // bI = tokenBalanceIn                ( bI / wI )         1                                  //\n    // bO = tokenBalanceOut         sP =  -----------  *  ----------                             //\n    // wI = tokenWeightIn                 ( bO / wO )     ( 1 - sF )                             //\n    // wO = tokenWeightOut                                                                       //\n    // sF = swapFee                                                                              //\n    **********************************************************************************************/\n    function calcSpotPrice(\n        uint tokenBalanceIn,\n        uint tokenWeightIn,\n        uint tokenBalanceOut,\n        uint tokenWeightOut,\n        uint swapFee\n    )\n        public pure\n        returns (uint spotPrice)\n    {\n        uint numer = bdiv(tokenBalanceIn, tokenWeightIn);\n        uint denom = bdiv(tokenBalanceOut, tokenWeightOut);\n        uint ratio = bdiv(numer, denom);\n        uint scale = bdiv(BONE, bsub(BONE, swapFee));\n        return  (spotPrice = bmul(ratio, scale));\n    }\n\n    /**********************************************************************************************\n    // calcOutGivenIn                                                                            //\n    // aO = tokenAmountOut                                                                       //\n    // bO = tokenBalanceOut                                                                      //\n    // bI = tokenBalanceIn              /      /            bI             \\    (wI / wO) \\      //\n    // aI = tokenAmountIn    aO = bO * |  1 - | --------------------------  | ^            |     //\n    // wI = tokenWeightIn               \\      \\ ( bI + ( aI * ( 1 - sF )) /              /      //\n    // wO = tokenWeightOut                                                                       //\n    // sF = swapFee                                                                              //\n    **********************************************************************************************/\n    function calcOutGivenIn(\n        uint tokenBalanceIn,\n        uint tokenWeightIn,\n        uint tokenBalanceOut,\n        uint tokenWeightOut,\n        uint tokenAmountIn,\n        uint swapFee\n    )\n        public pure\n        returns (uint tokenAmountOut)\n    {\n        uint weightRatio = bdiv(tokenWeightIn, tokenWeightOut);\n        uint adjustedIn = bsub(BONE, swapFee);\n        adjustedIn = bmul(tokenAmountIn, adjustedIn);\n        uint y = bdiv(tokenBalanceIn, badd(tokenBalanceIn, adjustedIn));\n        uint foo = bpow(y, weightRatio);\n        uint bar = bsub(BONE, foo);\n        tokenAmountOut = bmul(tokenBalanceOut, bar);\n        return tokenAmountOut;\n    }\n\n    /**********************************************************************************************\n    // calcInGivenOut                                                                            //\n    // aI = tokenAmountIn                                                                        //\n    // bO = tokenBalanceOut               /  /     bO      \\    (wO / wI)      \\                 //\n    // bI = tokenBalanceIn          bI * |  | ------------  | ^            - 1  |                //\n    // aO = tokenAmountOut    aI =        \\  \\ ( bO - aO ) /                   /                 //\n    // wI = tokenWeightIn           --------------------------------------------                 //\n    // wO = tokenWeightOut                          ( 1 - sF )                                   //\n    // sF = swapFee                                                                              //\n    **********************************************************************************************/\n    function calcInGivenOut(\n        uint tokenBalanceIn,\n        uint tokenWeightIn,\n        uint tokenBalanceOut,\n        uint tokenWeightOut,\n        uint tokenAmountOut,\n        uint swapFee\n    )\n        public pure\n        returns (uint tokenAmountIn)\n    {\n        uint weightRatio = bdiv(tokenWeightOut, tokenWeightIn);\n        uint diff = bsub(tokenBalanceOut, tokenAmountOut);\n        uint y = bdiv(tokenBalanceOut, diff);\n        uint foo = bpow(y, weightRatio);\n        foo = bsub(foo, BONE);\n        tokenAmountIn = bsub(BONE, swapFee);\n        tokenAmountIn = bdiv(bmul(tokenBalanceIn, foo), tokenAmountIn);\n        return tokenAmountIn;\n    }\n\n    /**********************************************************************************************\n    // calcPoolOutGivenSingleIn                                                                  //\n    // pAo = poolAmountOut         /                                              \\              //\n    // tAi = tokenAmountIn        ///      /     //    wI \\      \\\\       \\     wI \\             //\n    // wI = tokenWeightIn        //| tAi *| 1 - || 1 - --  | * sF || + tBi \\    --  \\            //\n    // tW = totalWeight     pAo=||  \\      \\     \\\\    tW /      //         | ^ tW   | * pS - pS //\n    // tBi = tokenBalanceIn      \\\\  ------------------------------------- /        /            //\n    // pS = poolSupply            \\\\                    tBi               /        /             //\n    // sF = swapFee                \\                                              /              //\n    **********************************************************************************************/\n    function calcPoolOutGivenSingleIn(\n        uint tokenBalanceIn,\n        uint tokenWeightIn,\n        uint poolSupply,\n        uint totalWeight,\n        uint tokenAmountIn,\n        uint swapFee\n    )\n        public pure\n        returns (uint poolAmountOut)\n    {\n        // Charge the trading fee for the proportion of tokenAi\n        ///  which is implicitly traded to the other pool tokens.\n        // That proportion is (1- weightTokenIn)\n        // tokenAiAfterFee = tAi * (1 - (1-weightTi) * poolFee);\n        uint normalizedWeight = bdiv(tokenWeightIn, totalWeight);\n        uint zaz = bmul(bsub(BONE, normalizedWeight), swapFee); \n        uint tokenAmountInAfterFee = bmul(tokenAmountIn, bsub(BONE, zaz));\n\n        uint newTokenBalanceIn = badd(tokenBalanceIn, tokenAmountInAfterFee);\n        uint tokenInRatio = bdiv(newTokenBalanceIn, tokenBalanceIn);\n\n        // uint newPoolSupply = (ratioTi ^ weightTi) * poolSupply;\n        uint poolRatio = bpow(tokenInRatio, normalizedWeight);\n        uint newPoolSupply = bmul(poolRatio, poolSupply);\n        poolAmountOut = bsub(newPoolSupply, poolSupply);\n        return poolAmountOut;\n    }\n\n    /**********************************************************************************************\n    // calcSingleInGivenPoolOut                                                                  //\n    // tAi = tokenAmountIn              //(pS + pAo)\\     /    1    \\\\                           //\n    // pS = poolSupply                 || ---------  | ^ | --------- || * bI - bI                //\n    // pAo = poolAmountOut              \\\\    pS    /     \\(wI / tW)//                           //\n    // bI = balanceIn          tAi =  --------------------------------------------               //\n    // wI = weightIn                              /      wI  \\                                   //\n    // tW = totalWeight                          |  1 - ----  |  * sF                            //\n    // sF = swapFee                               \\      tW  /                                   //\n    **********************************************************************************************/\n    function calcSingleInGivenPoolOut(\n        uint tokenBalanceIn,\n        uint tokenWeightIn,\n        uint poolSupply,\n        uint totalWeight,\n        uint poolAmountOut,\n        uint swapFee\n    )\n        public pure\n        returns (uint tokenAmountIn)\n    {\n        uint normalizedWeight = bdiv(tokenWeightIn, totalWeight);\n        uint newPoolSupply = badd(poolSupply, poolAmountOut);\n        uint poolRatio = bdiv(newPoolSupply, poolSupply);\n      \n        //uint newBalTi = poolRatio^(1/weightTi) * balTi;\n        uint boo = bdiv(BONE, normalizedWeight); \n        uint tokenInRatio = bpow(poolRatio, boo);\n        uint newTokenBalanceIn = bmul(tokenInRatio, tokenBalanceIn);\n        uint tokenAmountInAfterFee = bsub(newTokenBalanceIn, tokenBalanceIn);\n        // Do reverse order of fees charged in joinswap_ExternAmountIn, this way \n        //     ``` pAo == joinswap_ExternAmountIn(Ti, joinswap_PoolAmountOut(pAo, Ti)) ```\n        //uint tAi = tAiAfterFee / (1 - (1-weightTi) * swapFee) ;\n        uint zar = bmul(bsub(BONE, normalizedWeight), swapFee);\n        tokenAmountIn = bdiv(tokenAmountInAfterFee, bsub(BONE, zar));\n        return tokenAmountIn;\n    }\n\n    /**********************************************************************************************\n    // calcSingleOutGivenPoolIn                                                                  //\n    // tAo = tokenAmountOut            /      /                                             \\\\   //\n    // bO = tokenBalanceOut           /      // pS - (pAi * (1 - eF)) \\     /    1    \\      \\\\  //\n    // pAi = poolAmountIn            | bO - || ----------------------- | ^ | --------- | * b0 || //\n    // ps = poolSupply                \\      \\\\          pS           /     \\(wO / tW)/      //  //\n    // wI = tokenWeightIn      tAo =   \\      \\                                             //   //\n    // tW = totalWeight                    /     /      wO \\       \\                             //\n    // sF = swapFee                    *  | 1 - |  1 - ---- | * sF  |                            //\n    // eF = exitFee                        \\     \\      tW /       /                             //\n    **********************************************************************************************/\n    function calcSingleOutGivenPoolIn(\n        uint tokenBalanceOut,\n        uint tokenWeightOut,\n        uint poolSupply,\n        uint totalWeight,\n        uint poolAmountIn,\n        uint swapFee\n    )\n        public pure\n        returns (uint tokenAmountOut)\n    {\n        uint normalizedWeight = bdiv(tokenWeightOut, totalWeight);\n        // charge exit fee on the pool token side\n        // pAiAfterExitFee = pAi*(1-exitFee)\n        uint poolAmountInAfterExitFee = bmul(poolAmountIn, bsub(BONE, EXIT_FEE));\n        uint newPoolSupply = bsub(poolSupply, poolAmountInAfterExitFee);\n        uint poolRatio = bdiv(newPoolSupply, poolSupply);\n     \n        // newBalTo = poolRatio^(1/weightTo) * balTo;\n        uint tokenOutRatio = bpow(poolRatio, bdiv(BONE, normalizedWeight));\n        uint newTokenBalanceOut = bmul(tokenOutRatio, tokenBalanceOut);\n\n        uint tokenAmountOutBeforeSwapFee = bsub(tokenBalanceOut, newTokenBalanceOut);\n\n        // charge swap fee on the output token side \n        //uint tAo = tAoBeforeSwapFee * (1 - (1-weightTo) * swapFee)\n        uint zaz = bmul(bsub(BONE, normalizedWeight), swapFee); \n        tokenAmountOut = bmul(tokenAmountOutBeforeSwapFee, bsub(BONE, zaz));\n        return tokenAmountOut;\n    }\n\n    /**********************************************************************************************\n    // calcPoolInGivenSingleOut                                                                  //\n    // pAi = poolAmountIn               // /               tAo             \\\\     / wO \\     \\   //\n    // bO = tokenBalanceOut            // | bO - -------------------------- |\\   | ---- |     \\  //\n    // tAo = tokenAmountOut      pS - ||   \\     1 - ((1 - (tO / tW)) * sF)/  | ^ \\ tW /  * pS | //\n    // ps = poolSupply                 \\\\ -----------------------------------/                /  //\n    // wO = tokenWeightOut  pAi =       \\\\               bO                 /                /   //\n    // tW = totalWeight           -------------------------------------------------------------  //\n    // sF = swapFee                                        ( 1 - eF )                            //\n    // eF = exitFee                                                                              //\n    **********************************************************************************************/\n    function calcPoolInGivenSingleOut(\n        uint tokenBalanceOut,\n        uint tokenWeightOut,\n        uint poolSupply,\n        uint totalWeight,\n        uint tokenAmountOut,\n        uint swapFee\n    )\n        public pure\n        returns (uint poolAmountIn)\n    {\n\n        // charge swap fee on the output token side \n        uint normalizedWeight = bdiv(tokenWeightOut, totalWeight);\n        //uint tAoBeforeSwapFee = tAo / (1 - (1-weightTo) * swapFee) ;\n        uint zoo = bsub(BONE, normalizedWeight);\n        uint zar = bmul(zoo, swapFee); \n        uint tokenAmountOutBeforeSwapFee = bdiv(tokenAmountOut, bsub(BONE, zar));\n\n        uint newTokenBalanceOut = bsub(tokenBalanceOut, tokenAmountOutBeforeSwapFee);\n        uint tokenOutRatio = bdiv(newTokenBalanceOut, tokenBalanceOut);\n\n        //uint newPoolSupply = (ratioTo ^ weightTo) * poolSupply;\n        uint poolRatio = bpow(tokenOutRatio, normalizedWeight);\n        uint newPoolSupply = bmul(poolRatio, poolSupply);\n        uint poolAmountInAfterExitFee = bsub(poolSupply, newPoolSupply);\n\n        // charge exit fee on the pool token side\n        // pAi = pAiAfterExitFee/(1-exitFee)\n        poolAmountIn = bdiv(poolAmountInAfterExitFee, bsub(BONE, EXIT_FEE));\n        return poolAmountIn;\n    }\n\n\n}\n",
  "sourcePath": "/Users/jerryfireman/Projects/pool-manager/contracts/BMath.sol",
  "compiler": {
    "name": "solc",
    "version": "0.5.12+commit.7709ece9.Emscripten.clang"
  },
  "schemaVersion": "3.1.0",
  "updatedAt": "2020-05-19T00:59:39.656Z",
  "devdoc": {
    "methods": {}
  },
  "userdoc": {
    "methods": {
      "calcInGivenOut(uint256,uint256,uint256,uint256,uint256,uint256)": {
        "notice": "******************************************************************************************** // calcInGivenOut                                                                            // // aI = tokenAmountIn                                                                        // // bO = tokenBalanceOut               /  /     bO      \\    (wO / wI)      \\                 // // bI = tokenBalanceIn          bI * |  | ------------  | ^            - 1  |                // // aO = tokenAmountOut    aI =        \\  \\ ( bO - aO ) /                   /                 // // wI = tokenWeightIn           --------------------------------------------                 // // wO = tokenWeightOut                          ( 1 - sF )                                   // // sF = swapFee                                                                              //*********************************************************************************************"
      },
      "calcOutGivenIn(uint256,uint256,uint256,uint256,uint256,uint256)": {
        "notice": "******************************************************************************************** // calcOutGivenIn                                                                            // // aO = tokenAmountOut                                                                       // // bO = tokenBalanceOut                                                                      // // bI = tokenBalanceIn              /      /            bI             \\    (wI / wO) \\      // // aI = tokenAmountIn    aO = bO * |  1 - | --------------------------  | ^            |     // // wI = tokenWeightIn               \\      \\ ( bI + ( aI * ( 1 - sF )) /              /      // // wO = tokenWeightOut                                                                       // // sF = swapFee                                                                              //*********************************************************************************************"
      },
      "calcPoolInGivenSingleOut(uint256,uint256,uint256,uint256,uint256,uint256)": {
        "notice": "******************************************************************************************** // calcPoolInGivenSingleOut                                                                  // // pAi = poolAmountIn               // /               tAo             \\\\     / wO \\     \\   // // bO = tokenBalanceOut            // | bO - -------------------------- |\\   | ---- |     \\  // // tAo = tokenAmountOut      pS - ||   \\     1 - ((1 - (tO / tW)) * sF)/  | ^ \\ tW /  * pS | // // ps = poolSupply                 \\\\ -----------------------------------/                /  // // wO = tokenWeightOut  pAi =       \\\\               bO                 /                /   // // tW = totalWeight           -------------------------------------------------------------  // // sF = swapFee                                        ( 1 - eF )                            // // eF = exitFee                                                                              //*********************************************************************************************"
      },
      "calcPoolOutGivenSingleIn(uint256,uint256,uint256,uint256,uint256,uint256)": {
        "notice": "******************************************************************************************** // calcPoolOutGivenSingleIn                                                                  // // pAo = poolAmountOut         /                                              \\              // // tAi = tokenAmountIn        ///      /     //    wI \\      \\\\       \\     wI \\             // // wI = tokenWeightIn        //| tAi *| 1 - || 1 - --  | * sF || + tBi \\    --  \\            // // tW = totalWeight     pAo=||  \\      \\     \\\\    tW /      //         | ^ tW   | * pS - pS // // tBi = tokenBalanceIn      \\\\  ------------------------------------- /        /            // // pS = poolSupply            \\\\                    tBi               /        /             // // sF = swapFee                \\                                              /              //*********************************************************************************************"
      },
      "calcSingleInGivenPoolOut(uint256,uint256,uint256,uint256,uint256,uint256)": {
        "notice": "******************************************************************************************** // calcSingleInGivenPoolOut                                                                  // // tAi = tokenAmountIn              //(pS + pAo)\\     /    1    \\\\                           // // pS = poolSupply                 || ---------  | ^ | --------- || * bI - bI                // // pAo = poolAmountOut              \\\\    pS    /     \\(wI / tW)//                           // // bI = balanceIn          tAi =  --------------------------------------------               // // wI = weightIn                              /      wI  \\                                   // // tW = totalWeight                          |  1 - ----  |  * sF                            // // sF = swapFee                               \\      tW  /                                   //*********************************************************************************************"
      },
      "calcSingleOutGivenPoolIn(uint256,uint256,uint256,uint256,uint256,uint256)": {
        "notice": "******************************************************************************************** // calcSingleOutGivenPoolIn                                                                  // // tAo = tokenAmountOut            /      /                                             \\\\   // // bO = tokenBalanceOut           /      // pS - (pAi * (1 - eF)) \\     /    1    \\      \\\\  // // pAi = poolAmountIn            | bO - || ----------------------- | ^ | --------- | * b0 || // // ps = poolSupply                \\      \\\\          pS           /     \\(wO / tW)/      //  // // wI = tokenWeightIn      tAo =   \\      \\                                             //   // // tW = totalWeight                    /     /      wO \\       \\                             // // sF = swapFee                    *  | 1 - |  1 - ---- | * sF  |                            // // eF = exitFee                        \\     \\      tW /       /                             //*********************************************************************************************"
      },
      "calcSpotPrice(uint256,uint256,uint256,uint256,uint256)": {
        "notice": "******************************************************************************************** // calcSpotPrice                                                                             // // sP = spotPrice                                                                            // // bI = tokenBalanceIn                ( bI / wI )         1                                  // // bO = tokenBalanceOut         sP =  -----------  *  ----------                             // // wI = tokenWeightIn                 ( bO / wO )     ( 1 - sF )                             // // wO = tokenWeightOut                                                                       // // sF = swapFee                                                                              //*********************************************************************************************"
      }
    }
  }
}