{
  "contractName": "PoolManager",
  "abi": [
    {
      "inputs": [
        {
          "internalType": "address",
          "name": "_factory",
          "type": "address"
        }
      ],
      "payable": false,
      "stateMutability": "nonpayable",
      "type": "constructor"
    },
    {
      "anonymous": false,
      "inputs": [
        {
          "indexed": false,
          "internalType": "address",
          "name": "bpoolAddress",
          "type": "address"
        }
      ],
      "name": "PoolCreated",
      "type": "event"
    },
    {
      "anonymous": false,
      "inputs": [
        {
          "indexed": false,
          "internalType": "address",
          "name": "token",
          "type": "address"
        },
        {
          "indexed": false,
          "internalType": "address",
          "name": "currentPoolAddress",
          "type": "address"
        },
        {
          "indexed": false,
          "internalType": "uint256",
          "name": "balance",
          "type": "uint256"
        }
      ],
      "name": "TokenApproved",
      "type": "event"
    },
    {
      "anonymous": false,
      "inputs": [
        {
          "indexed": false,
          "internalType": "address",
          "name": "currentPool",
          "type": "address"
        },
        {
          "indexed": false,
          "internalType": "address",
          "name": "token",
          "type": "address"
        },
        {
          "indexed": false,
          "internalType": "uint256",
          "name": "balance",
          "type": "uint256"
        },
        {
          "indexed": false,
          "internalType": "uint256",
          "name": "denorm",
          "type": "uint256"
        }
      ],
      "name": "TokenBound",
      "type": "event"
    },
    {
      "anonymous": false,
      "inputs": [
        {
          "indexed": false,
          "internalType": "address",
          "name": "currentPool",
          "type": "address"
        },
        {
          "indexed": false,
          "internalType": "address",
          "name": "token",
          "type": "address"
        },
        {
          "indexed": false,
          "internalType": "uint256",
          "name": "balance",
          "type": "uint256"
        },
        {
          "indexed": false,
          "internalType": "uint256",
          "name": "denorm",
          "type": "uint256"
        }
      ],
      "name": "TokenRebound",
      "type": "event"
    },
    {
      "anonymous": false,
      "inputs": [
        {
          "indexed": false,
          "internalType": "address",
          "name": "currentPool",
          "type": "address"
        },
        {
          "indexed": false,
          "internalType": "address",
          "name": "token",
          "type": "address"
        }
      ],
      "name": "TokenUnbound",
      "type": "event"
    },
    {
      "constant": true,
      "inputs": [],
      "name": "factory",
      "outputs": [
        {
          "internalType": "address",
          "name": "",
          "type": "address"
        }
      ],
      "payable": false,
      "stateMutability": "view",
      "type": "function"
    },
    {
      "constant": true,
      "inputs": [],
      "name": "owner",
      "outputs": [
        {
          "internalType": "address",
          "name": "",
          "type": "address"
        }
      ],
      "payable": false,
      "stateMutability": "view",
      "type": "function"
    },
    {
      "constant": false,
      "inputs": [],
      "name": "createPool",
      "outputs": [
        {
          "internalType": "contract BPool",
          "name": "",
          "type": "address"
        }
      ],
      "payable": false,
      "stateMutability": "nonpayable",
      "type": "function"
    },
    {
      "constant": false,
      "inputs": [
        {
          "internalType": "address",
          "name": "_token",
          "type": "address"
        },
        {
          "internalType": "address",
          "name": "_currentPoolAddress",
          "type": "address"
        },
        {
          "internalType": "uint256",
          "name": "_balance",
          "type": "uint256"
        }
      ],
      "name": "approveToken",
      "outputs": [],
      "payable": false,
      "stateMutability": "nonpayable",
      "type": "function"
    },
    {
      "constant": true,
      "inputs": [
        {
          "internalType": "address",
          "name": "_currentPoolAddress",
          "type": "address"
        },
        {
          "internalType": "address",
          "name": "_token",
          "type": "address"
        }
      ],
      "name": "checkToken",
      "outputs": [
        {
          "internalType": "bool",
          "name": "",
          "type": "bool"
        }
      ],
      "payable": false,
      "stateMutability": "view",
      "type": "function"
    },
    {
      "constant": true,
      "inputs": [
        {
          "internalType": "address",
          "name": "_currentPoolAddress",
          "type": "address"
        },
        {
          "internalType": "address",
          "name": "_token",
          "type": "address"
        }
      ],
      "name": "normalizedWeight",
      "outputs": [
        {
          "internalType": "uint256",
          "name": "",
          "type": "uint256"
        }
      ],
      "payable": false,
      "stateMutability": "view",
      "type": "function"
    },
    {
      "constant": true,
      "inputs": [
        {
          "internalType": "address",
          "name": "_currentPoolAddress",
          "type": "address"
        },
        {
          "internalType": "address",
          "name": "_token",
          "type": "address"
        }
      ],
      "name": "denormalizedWeight",
      "outputs": [
        {
          "internalType": "uint256",
          "name": "",
          "type": "uint256"
        }
      ],
      "payable": false,
      "stateMutability": "view",
      "type": "function"
    },
    {
      "constant": true,
      "inputs": [
        {
          "internalType": "address",
          "name": "_currentPoolAddress",
          "type": "address"
        },
        {
          "internalType": "address",
          "name": "_token",
          "type": "address"
        }
      ],
      "name": "tokenBalance",
      "outputs": [
        {
          "internalType": "uint256",
          "name": "",
          "type": "uint256"
        }
      ],
      "payable": false,
      "stateMutability": "view",
      "type": "function"
    },
    {
      "constant": true,
      "inputs": [
        {
          "internalType": "address",
          "name": "_currentPoolAddress",
          "type": "address"
        }
      ],
      "name": "currentTokens",
      "outputs": [
        {
          "internalType": "address[]",
          "name": "",
          "type": "address[]"
        }
      ],
      "payable": false,
      "stateMutability": "view",
      "type": "function"
    },
    {
      "constant": false,
      "inputs": [
        {
          "internalType": "address",
          "name": "_currentPoolAddress",
          "type": "address"
        },
        {
          "internalType": "address",
          "name": "_token",
          "type": "address"
        },
        {
          "internalType": "uint256",
          "name": "_balance",
          "type": "uint256"
        },
        {
          "internalType": "uint256",
          "name": "_denorm",
          "type": "uint256"
        }
      ],
      "name": "bindToken",
      "outputs": [],
      "payable": false,
      "stateMutability": "nonpayable",
      "type": "function"
    },
    {
      "constant": false,
      "inputs": [
        {
          "internalType": "address",
          "name": "_currentPoolAddress",
          "type": "address"
        },
        {
          "internalType": "address",
          "name": "_token",
          "type": "address"
        },
        {
          "internalType": "uint256",
          "name": "_balance",
          "type": "uint256"
        },
        {
          "internalType": "uint256",
          "name": "_denorm",
          "type": "uint256"
        }
      ],
      "name": "rebindToken",
      "outputs": [],
      "payable": false,
      "stateMutability": "nonpayable",
      "type": "function"
    },
    {
      "constant": false,
      "inputs": [
        {
          "internalType": "address",
          "name": "_currentPoolAddress",
          "type": "address"
        },
        {
          "internalType": "address",
          "name": "_token",
          "type": "address"
        }
      ],
      "name": "unbindToken",
      "outputs": [],
      "payable": false,
      "stateMutability": "nonpayable",
      "type": "function"
    },
    {
      "constant": false,
      "inputs": [
        {
          "internalType": "address",
          "name": "_currentPoolAddress",
          "type": "address"
        },
        {
          "internalType": "uint256",
          "name": "_fee",
          "type": "uint256"
        }
      ],
      "name": "setFee",
      "outputs": [],
      "payable": false,
      "stateMutability": "nonpayable",
      "type": "function"
    },
    {
      "constant": true,
      "inputs": [
        {
          "internalType": "address",
          "name": "_currentPoolAddress",
          "type": "address"
        }
      ],
      "name": "swapFee",
      "outputs": [
        {
          "internalType": "uint256",
          "name": "",
          "type": "uint256"
        }
      ],
      "payable": false,
      "stateMutability": "view",
      "type": "function"
    },
    {
      "constant": false,
      "inputs": [
        {
          "internalType": "address",
          "name": "_currentPoolAddress",
          "type": "address"
        },
        {
          "internalType": "bool",
          "name": "_public",
          "type": "bool"
        }
      ],
      "name": "setPublic",
      "outputs": [],
      "payable": false,
      "stateMutability": "nonpayable",
      "type": "function"
    },
    {
      "constant": true,
      "inputs": [
        {
          "internalType": "address",
          "name": "_currentPoolAddress",
          "type": "address"
        }
      ],
      "name": "isPublic",
      "outputs": [
        {
          "internalType": "bool",
          "name": "",
          "type": "bool"
        }
      ],
      "payable": false,
      "stateMutability": "view",
      "type": "function"
    }
  ],
  "bytecode": "0x608060405234801561001057600080fd5b50604051610f87380380610f878339818101604052602081101561003357600080fd5b505160008054600160a060020a0319908116331790915560018054600160a060020a0390931692909116919091179055610f15806100726000396000f3fe608060405234801561001057600080fd5b50600436106100e45760003560e060020a90048063b9d6a8a51161008b578063b9d6a8a514610241578063c43f363e1461027d578063c45a0155146102f3578063d7c980ca146102fb578063da3e339714610337578063e1fbf9ad1461036d578063e55156b51461039b578063feaef177146103c7576100e4565b80631049334f146100e95780634f054afe146101295780637367bac4146101575780637380726f146101915780638da5cb5b146101bf5780639a06b113146101e3578063a6ae80e2146101eb578063b8518d2314610211575b600080fd5b610117600480360360408110156100ff57600080fd5b50600160a060020a03813581169160200135166103f5565b60408051918252519081900360200190f35b6101176004803603604081101561013f57600080fd5b50600160a060020a0381358116916020013516610488565b61017d6004803603602081101561016d57600080fd5b5035600160a060020a03166104e7565b604080519115158252519081900360200190f35b61017d600480360360408110156101a757600080fd5b50600160a060020a038135811691602001351661055c565b6101c76105bb565b60408051600160a060020a039092168252519081900360200190f35b6101c76105ca565b6101176004803603602081101561020157600080fd5b5035600160a060020a03166106ef565b61023f6004803603604081101561022757600080fd5b50600160a060020a0381351690602001351515610731565b005b61023f6004803603608081101561025757600080fd5b50600160a060020a038135811691602081013590911690604081013590606001356107ff565b6102a36004803603602081101561029357600080fd5b5035600160a060020a031661092e565b60408051602080825283518183015283519192839290830191858101910280838360005b838110156102df5781810151838201526020016102c7565b505050509050019250505060405180910390f35b6101c7610a42565b61023f6004803603608081101561031157600080fd5b50600160a060020a03813581169160208101359091169060408101359060600135610a51565b61023f6004803603606081101561034d57600080fd5b50600160a060020a03813581169160208101359091169060400135610b80565b6101176004803603604081101561038357600080fd5b50600160a060020a0381358116916020013516610cb4565b61023f600480360360408110156103b157600080fd5b50600160a060020a038135169060200135610d13565b61023f600480360360408110156103dd57600080fd5b50600160a060020a0381358116916020013516610dad565b60008083905080600160a060020a031663f8b2cb4f846040518263ffffffff1660e060020a0281526004018082600160a060020a0316600160a060020a0316815260200191505060206040518083038186803b15801561045457600080fd5b505afa158015610468573d6000803e3d6000fd5b505050506040513d602081101561047e57600080fd5b5051949350505050565b60008083905080600160a060020a031663f1b8a9b7846040518263ffffffff1660e060020a0281526004018082600160a060020a0316600160a060020a0316815260200191505060206040518083038186803b15801561045457600080fd5b60008082905080600160a060020a031663fde924f76040518163ffffffff1660e060020a02815260040160206040518083038186803b15801561052957600080fd5b505afa15801561053d573d6000803e3d6000fd5b505050506040513d602081101561055357600080fd5b50519392505050565b60008083905080600160a060020a0316632f37b624846040518263ffffffff1660e060020a0281526004018082600160a060020a0316600160a060020a0316815260200191505060206040518083038186803b15801561045457600080fd5b600054600160a060020a031681565b60008054600160a060020a031633146106175760405160e560020a62461bcd028152600401808060200182810382526021815260200180610ec06021913960400191505060405180910390fd5b600154604080517fd556c5dc0000000000000000000000000000000000000000000000000000000081529051600160a060020a0390921691600091839163d556c5dc9160048082019260209290919082900301818787803b15801561067b57600080fd5b505af115801561068f573d6000803e3d6000fd5b505050506040513d60208110156106a557600080fd5b505160408051600160a060020a0383168152905191925082917f83a48fbcfc991335314e74d0496aab6a1987e992ddc85dddbcc4d6dd6ef2e9fc9181900360200190a15091505090565b60008082905080600160a060020a031663d4cadf686040518163ffffffff1660e060020a02815260040160206040518083038186803b15801561052957600080fd5b600054600160a060020a0316331461077d5760405160e560020a62461bcd028152600401808060200182810382526021815260200180610ec06021913960400191505060405180910390fd5b604080517f49b59552000000000000000000000000000000000000000000000000000000008152821515600482015290518391600160a060020a038316916349b595529160248082019260009290919082900301818387803b1580156107e257600080fd5b505af11580156107f6573d6000803e3d6000fd5b50505050505050565b600054600160a060020a0316331461084b5760405160e560020a62461bcd028152600401808060200182810382526021815260200180610ec06021913960400191505060405180910390fd5b604080517f3fdddaa2000000000000000000000000000000000000000000000000000000008152600160a060020a038581166004830152602482018590526044820184905291518692831691633fdddaa291606480830192600092919082900301818387803b1580156108bd57600080fd5b505af11580156108d1573d6000803e3d6000fd5b505060408051600160a060020a03808a168252881660208201528082018790526060810186905290517f9a99b71c4cf232ef1b26dafda743fa55ea29e8675f5fb3b087e4521d9d6589299350908190036080019150a15050505050565b6060600082905080600160a060020a031663cc77828d6040518163ffffffff1660e060020a02815260040160006040518083038186803b15801561097157600080fd5b505afa158015610985573d6000803e3d6000fd5b505050506040513d6000823e601f3d908101601f1916820160405260208110156109ae57600080fd5b81019080805160405193929190846401000000008211156109ce57600080fd5b9083019060208201858111156109e357600080fd5b8251866020820283011164010000000082111715610a0057600080fd5b82525081516020918201928201910280838360005b83811015610a2d578181015183820152602001610a15565b50505050905001604052505050915050919050565b600154600160a060020a031681565b600054600160a060020a03163314610a9d5760405160e560020a62461bcd028152600401808060200182810382526021815260200180610ec06021913960400191505060405180910390fd5b604080517fe4e1e538000000000000000000000000000000000000000000000000000000008152600160a060020a03858116600483015260248201859052604482018490529151869283169163e4e1e53891606480830192600092919082900301818387803b158015610b0f57600080fd5b505af1158015610b23573d6000803e3d6000fd5b505060408051600160a060020a03808a168252881660208201528082018790526060810186905290517f194cdbdc6669374257b08c6948a71e61892de19c5d86896c9e7e26fc71c1ec6f9350908190036080019150a15050505050565b600054600160a060020a03163314610bcc5760405160e560020a62461bcd028152600401808060200182810382526021815260200180610ec06021913960400191505060405180910390fd5b604080517f095ea7b3000000000000000000000000000000000000000000000000000000008152600160a060020a038481166004830152602482018490529151859283169163095ea7b39160448083019260209291908290030181600087803b158015610c3857600080fd5b505af1158015610c4c573d6000803e3d6000fd5b505050506040513d6020811015610c6257600080fd5b505060408051600160a060020a0380871682528516602082015280820184905290517fc532e6b60637d86dd3fe55f7548ed169de9c79cfdef610593bea3569f079bc659181900360600190a150505050565b60008083905080600160a060020a031663948d8ce6846040518263ffffffff1660e060020a0281526004018082600160a060020a0316600160a060020a0316815260200191505060206040518083038186803b15801561045457600080fd5b600054600160a060020a03163314610d5f5760405160e560020a62461bcd028152600401808060200182810382526021815260200180610ec06021913960400191505060405180910390fd5b600082905080600160a060020a03166334e19907836040518263ffffffff1660e060020a02815260040180828152602001915050600060405180830381600087803b1580156107e257600080fd5b600054600160a060020a03163314610df95760405160e560020a62461bcd028152600401808060200182810382526021815260200180610ec06021913960400191505060405180910390fd5b604080517fcf5e7bd3000000000000000000000000000000000000000000000000000000008152600160a060020a0383811660048301529151849283169163cf5e7bd391602480830192600092919082900301818387803b158015610e5d57600080fd5b505af1158015610e71573d6000803e3d6000fd5b505060408051600160a060020a0380881682528616602082015281517f851fb1ea978289f547bc8cf664ad4d224d0dcd927c0fcb8a62d887aed42343c49450908190039091019150a150505056fe4f6e6c79206f776e65722063616e2063616c6c20746869732066756e6374696f6ea265627a7a72315820528fdb8bea4c1c9f5f1594b79b24d1ff1357c72c6e7b886ab383bceb81bc86ae64736f6c634300050c0032",
  "source": "pragma solidity 0.5.12;\n\nimport \"./BFactory.sol\";\nimport \"./BPool.sol\";\nimport \"./test/TToken.sol\";\n\n\ncontract PoolManager {\n    address public owner;\n    address public factory;\n\n    event PoolCreated(address bpoolAddress);\n    event TokenBound(address currentPool, address token, uint balance, uint denorm);\n    event TokenRebound(address currentPool, address token, uint balance, uint denorm);\n    event TokenUnbound(address currentPool, address token);\n\n    event TokenApproved(address token, address currentPoolAddress, uint balance);\n\n    modifier onlyOwner {\n        require(msg.sender == owner, \"Only owner can call this function\");\n        _;\n    }\n\n    constructor(address _factory) public {\n        owner = msg.sender;\n        factory = _factory;\n    }\n\n    //@dev creates a new smart pool that will be controlled by pool manager\n    function createPool()\n        public\n        onlyOwner\n        returns(BPool)\n    {\n        BFactory bfactory = BFactory(factory);\n        BPool bpool = bfactory.newBPool();\n        address poolAddress = address(bpool);\n        emit PoolCreated(poolAddress);\n        return bpool;\n    }\n\n    //@dev approves a new token for binding by a smart pool\n    function approveToken(address _token, address _currentPoolAddress, uint _balance)\n        public\n        onlyOwner\n    {\n        TToken token = TToken(_token);\n        token.approve(_currentPoolAddress, _balance);\n        emit TokenApproved(_token, _currentPoolAddress, _balance);\n    }\n\n    //@dev checks whether a token is bound to the current smart pool\n    function checkToken(address _currentPoolAddress, address _token)\n        external\n        view\n        returns(bool)\n    {\n        BPool currentPool = BPool(_currentPoolAddress);\n        return currentPool.isBound(_token);\n    }\n\n    //@dev returns the normalized weight of a token\n    function normalizedWeight(address _currentPoolAddress, address _token)\n        external\n        view\n        returns(uint)\n    {\n        BPool currentPool = BPool(_currentPoolAddress);\n        return currentPool.getNormalizedWeight(_token);\n    }\n\n    //@dev returns the denormalized weight of a token\n    function denormalizedWeight(address _currentPoolAddress, address _token)\n        external\n        view\n        returns(uint)\n    {\n        BPool currentPool = BPool(_currentPoolAddress);\n        return currentPool.getDenormalizedWeight(_token);\n    }\n\n    //@dev returns the balance of a token\n    function tokenBalance(address _currentPoolAddress, address _token)\n        external\n        view\n        returns(uint)\n    {\n        BPool currentPool = BPool(_currentPoolAddress);\n        return currentPool.getBalance(_token);\n    }\n\n    //@dev returns array of tokens bound to the current smart pool\n    function currentTokens(address _currentPoolAddress)\n        public\n        view\n        returns(address[] memory)\n    {\n        BPool currentPool = BPool(_currentPoolAddress);\n        return currentPool.getCurrentTokens();\n    }\n\n    //@dev binds a new token to the smart pool that is current being managed\n    function bindToken(address _currentPoolAddress, address _token, uint _balance, uint _denorm)\n        public\n        onlyOwner\n    {\n        BPool currentPool = BPool(_currentPoolAddress);\n        currentPool.bind(_token, _balance, _denorm);\n        emit TokenBound(_currentPoolAddress, _token, _balance, _denorm);\n    }\n\n    //@dev rebinds a token to the smart pool, changing the weight and/or balance\n    function rebindToken(address _currentPoolAddress, address _token, uint _balance, uint _denorm)\n        public\n        onlyOwner\n    {\n        BPool currentPool = BPool(_currentPoolAddress);\n        currentPool.rebind(_token, _balance, _denorm);\n        emit TokenRebound(_currentPoolAddress, _token, _balance, _denorm);\n    }\n\n    //@dev unbinds a token from the smart pool\n    function unbindToken(address _currentPoolAddress, address _token)\n        public\n        onlyOwner\n    {\n        BPool currentPool = BPool(_currentPoolAddress);\n        currentPool.unbind(_token);\n        emit TokenUnbound(_currentPoolAddress, _token);\n    }\n\n    //@dev sets the swap fee\n    function setFee(address _currentPoolAddress, uint _fee)\n        public\n        onlyOwner\n    {\n        BPool currentPool = BPool(_currentPoolAddress);\n        currentPool.setSwapFee(_fee);\n    }\n\n    //@dev returns the swap fee of the current smart pool\n    function swapFee(address _currentPoolAddress)\n        public\n        view\n        returns(uint)\n    {\n        BPool currentPool = BPool(_currentPoolAddress);\n        return currentPool.getSwapFee();\n    }\n\n    //@dev sets the current pool public\n    function setPublic(address _currentPoolAddress, bool _public)\n        public\n        onlyOwner\n    {\n        BPool currentPool = BPool(_currentPoolAddress);\n        currentPool.setPublicSwap(_public);\n    }\n\n    //@dev returns true if the current smart pool is public\n    function isPublic(address _currentPoolAddress)\n        public\n        view\n        returns(bool)\n    {\n        BPool currentPool = BPool(_currentPoolAddress);\n        return currentPool.isPublicSwap();\n    }\n}\n",
  "sourcePath": "/Users/jerryfireman/Projects/pool-manager/contracts/PoolManager.sol",
  "compiler": {
    "name": "solc",
    "version": "0.5.12+commit.7709ece9.Emscripten.clang"
  },
  "schemaVersion": "3.1.0",
  "updatedAt": "2020-06-24T14:42:11.739Z",
  "networkType": "ethereum",
  "devdoc": {
    "methods": {}
  },
  "userdoc": {
    "methods": {}
  }
}