{
  "contractName": "PoolManager",
  "abi": [
    {
      "inputs": [
        {
          "internalType": "address",
          "name": "_factory",
          "type": "address"
        }
      ],
      "payable": false,
      "stateMutability": "nonpayable",
      "type": "constructor"
    },
    {
      "anonymous": false,
      "inputs": [
        {
          "indexed": false,
          "internalType": "address",
          "name": "sender",
          "type": "address"
        },
        {
          "indexed": false,
          "internalType": "uint256",
          "name": "newValue",
          "type": "uint256"
        }
      ],
      "name": "LogSet",
      "type": "event"
    },
    {
      "anonymous": false,
      "inputs": [
        {
          "indexed": false,
          "internalType": "address",
          "name": "bpoolAddress",
          "type": "address"
        }
      ],
      "name": "PoolCreated",
      "type": "event"
    },
    {
      "constant": true,
      "inputs": [],
      "name": "factory",
      "outputs": [
        {
          "internalType": "address",
          "name": "",
          "type": "address"
        }
      ],
      "payable": false,
      "stateMutability": "view",
      "type": "function"
    },
    {
      "constant": true,
      "inputs": [],
      "name": "owner",
      "outputs": [
        {
          "internalType": "address",
          "name": "",
          "type": "address"
        }
      ],
      "payable": false,
      "stateMutability": "view",
      "type": "function"
    },
    {
      "constant": false,
      "inputs": [],
      "name": "createPool",
      "outputs": [
        {
          "internalType": "contract BPool",
          "name": "",
          "type": "address"
        }
      ],
      "payable": false,
      "stateMutability": "nonpayable",
      "type": "function"
    },
    {
      "constant": false,
      "inputs": [
        {
          "internalType": "uint256",
          "name": "x",
          "type": "uint256"
        }
      ],
      "name": "set",
      "outputs": [],
      "payable": false,
      "stateMutability": "nonpayable",
      "type": "function"
    },
    {
      "constant": true,
      "inputs": [],
      "name": "get",
      "outputs": [
        {
          "internalType": "uint256",
          "name": "",
          "type": "uint256"
        }
      ],
      "payable": false,
      "stateMutability": "view",
      "type": "function"
    }
  ],
  "bytecode": "0x608060405234801561001057600080fd5b506040516103503803806103508339818101604052602081101561003357600080fd5b505160008054600160a060020a0319908116331790915560018054600160a060020a03909316929091169190911790556102de806100726000396000f3fe608060405234801561001057600080fd5b5060043610610073577c0100000000000000000000000000000000000000000000000000000000600035046360fe47b181146100785780636d4ce63c146100975780638da5cb5b146100b15780639a06b113146100d5578063c45a0155146100dd575b600080fd5b6100956004803603602081101561008e57600080fd5b50356100e5565b005b61009f610128565b60408051918252519081900360200190f35b6100b961012e565b60408051600160a060020a039092168252519081900360200190f35b6100b961013d565b6100b9610279565b6002819055604080513381526020810183905281517ffa687fbbbd114f405c78850b508cd15ded5f4d9400cf4190a3093b0af68de8c1929181900390910190a150565b60025490565b600054600160a060020a031681565b60008054600160a060020a031633146101a1576040517f08c379a00000000000000000000000000000000000000000000000000000000081526004018080602001828103825260218152602001806102896021913960400191505060405180910390fd5b600154604080517fd556c5dc0000000000000000000000000000000000000000000000000000000081529051600160a060020a0390921691600091839163d556c5dc9160048082019260209290919082900301818787803b15801561020557600080fd5b505af1158015610219573d6000803e3d6000fd5b505050506040513d602081101561022f57600080fd5b505160408051600160a060020a0383168152905191925082917f83a48fbcfc991335314e74d0496aab6a1987e992ddc85dddbcc4d6dd6ef2e9fc9181900360200190a15091505090565b600154600160a060020a03168156fe4f6e6c79206f776e65722063616e2063616c6c20746869732066756e6374696f6ea265627a7a72315820eb894f08e156d182acf23e9e2b9097baefc55f122b9ea22cae05347a29d4a64364736f6c634300050c0032",
  "source": "pragma solidity 0.5.12;\n\nimport \"./BFactory.sol\";\nimport \"./BPool.sol\";\n\ncontract PoolManager {\n    address public owner;\n    address public factory;\n\n    event PoolCreated(address bpoolAddress);\n\n    modifier onlyOwner {\n        require(msg.sender == owner, \"Only owner can call this function\");\n        _;\n    }\n\n    constructor(address _factory) public {\n        owner = msg.sender;\n        factory = _factory;\n    }\n\n    function createPool()\n        public\n        onlyOwner\n        returns(BPool)\n    {\n        BFactory bfactory = BFactory(factory);\n        BPool bpool = bfactory.newBPool();\n        address poolAddress = address(bpool);\n        emit PoolCreated(poolAddress);\n        return bpool;\n    }\n\n    //Stored data section for testing UI\n    uint storedData;\n\n    event LogSet(address sender, uint newValue);\n\n    function set(uint x) public {\n        storedData = x;\n        emit LogSet(msg.sender, x);\n    }\n\n    function get() public view returns (uint) {\n        return storedData;\n    }\n\n}\n",
  "sourcePath": "/Users/jerryfireman/Projects/pool-manager/contracts/PoolManager.sol",
  "compiler": {
    "name": "solc",
    "version": "0.5.12+commit.7709ece9.Emscripten.clang"
  },
  "schemaVersion": "3.1.0",
  "updatedAt": "2020-05-22T18:40:28.868Z",
  "networkType": "ethereum",
  "devdoc": {
    "methods": {}
  },
  "userdoc": {
    "methods": {}
  }
}