{
  "contractName": "PoolManager",
  "abi": [
    {
      "inputs": [
        {
          "internalType": "address",
          "name": "_factory",
          "type": "address"
        }
      ],
      "payable": false,
      "stateMutability": "nonpayable",
      "type": "constructor"
    },
    {
      "anonymous": false,
      "inputs": [
        {
          "indexed": false,
          "internalType": "address",
          "name": "bpoolAddress",
          "type": "address"
        }
      ],
      "name": "PoolCreated",
      "type": "event"
    },
    {
      "anonymous": false,
      "inputs": [
        {
          "indexed": false,
          "internalType": "address",
          "name": "token",
          "type": "address"
        },
        {
          "indexed": false,
          "internalType": "address",
          "name": "currentPoolAddress",
          "type": "address"
        },
        {
          "indexed": false,
          "internalType": "uint256",
          "name": "balance",
          "type": "uint256"
        }
      ],
      "name": "TokenApproved",
      "type": "event"
    },
    {
      "anonymous": false,
      "inputs": [
        {
          "indexed": false,
          "internalType": "address",
          "name": "currentPool",
          "type": "address"
        },
        {
          "indexed": false,
          "internalType": "address",
          "name": "token",
          "type": "address"
        },
        {
          "indexed": false,
          "internalType": "uint256",
          "name": "balance",
          "type": "uint256"
        },
        {
          "indexed": false,
          "internalType": "uint256",
          "name": "denorm",
          "type": "uint256"
        }
      ],
      "name": "TokenBound",
      "type": "event"
    },
    {
      "anonymous": false,
      "inputs": [
        {
          "indexed": false,
          "internalType": "address",
          "name": "currentPool",
          "type": "address"
        },
        {
          "indexed": false,
          "internalType": "address",
          "name": "token",
          "type": "address"
        },
        {
          "indexed": false,
          "internalType": "uint256",
          "name": "balance",
          "type": "uint256"
        },
        {
          "indexed": false,
          "internalType": "uint256",
          "name": "denorm",
          "type": "uint256"
        }
      ],
      "name": "TokenRebound",
      "type": "event"
    },
    {
      "anonymous": false,
      "inputs": [
        {
          "indexed": false,
          "internalType": "address",
          "name": "currentPool",
          "type": "address"
        },
        {
          "indexed": false,
          "internalType": "address",
          "name": "token",
          "type": "address"
        }
      ],
      "name": "TokenUnbound",
      "type": "event"
    },
    {
      "constant": true,
      "inputs": [],
      "name": "factory",
      "outputs": [
        {
          "internalType": "address",
          "name": "",
          "type": "address"
        }
      ],
      "payable": false,
      "stateMutability": "view",
      "type": "function"
    },
    {
      "constant": true,
      "inputs": [],
      "name": "owner",
      "outputs": [
        {
          "internalType": "address",
          "name": "",
          "type": "address"
        }
      ],
      "payable": false,
      "stateMutability": "view",
      "type": "function"
    },
    {
      "constant": false,
      "inputs": [],
      "name": "createPool",
      "outputs": [
        {
          "internalType": "contract BPool",
          "name": "",
          "type": "address"
        }
      ],
      "payable": false,
      "stateMutability": "nonpayable",
      "type": "function"
    },
    {
      "constant": false,
      "inputs": [
        {
          "internalType": "address",
          "name": "_token",
          "type": "address"
        },
        {
          "internalType": "address",
          "name": "_currentPoolAddress",
          "type": "address"
        },
        {
          "internalType": "uint256",
          "name": "_balance",
          "type": "uint256"
        }
      ],
      "name": "approveToken",
      "outputs": [],
      "payable": false,
      "stateMutability": "nonpayable",
      "type": "function"
    },
    {
      "constant": true,
      "inputs": [
        {
          "internalType": "address",
          "name": "_currentPoolAddress",
          "type": "address"
        },
        {
          "internalType": "address",
          "name": "_token",
          "type": "address"
        }
      ],
      "name": "checkToken",
      "outputs": [
        {
          "internalType": "bool",
          "name": "",
          "type": "bool"
        }
      ],
      "payable": false,
      "stateMutability": "view",
      "type": "function"
    },
    {
      "constant": true,
      "inputs": [
        {
          "internalType": "address",
          "name": "_currentPoolAddress",
          "type": "address"
        },
        {
          "internalType": "address",
          "name": "_token",
          "type": "address"
        }
      ],
      "name": "normalizedWeight",
      "outputs": [
        {
          "internalType": "uint256",
          "name": "",
          "type": "uint256"
        }
      ],
      "payable": false,
      "stateMutability": "view",
      "type": "function"
    },
    {
      "constant": true,
      "inputs": [
        {
          "internalType": "address",
          "name": "_currentPoolAddress",
          "type": "address"
        },
        {
          "internalType": "address",
          "name": "_token",
          "type": "address"
        }
      ],
      "name": "tokenBalance",
      "outputs": [
        {
          "internalType": "uint256",
          "name": "",
          "type": "uint256"
        }
      ],
      "payable": false,
      "stateMutability": "view",
      "type": "function"
    },
    {
      "constant": true,
      "inputs": [
        {
          "internalType": "address",
          "name": "_currentPoolAddress",
          "type": "address"
        }
      ],
      "name": "currentTokens",
      "outputs": [
        {
          "internalType": "address[]",
          "name": "",
          "type": "address[]"
        }
      ],
      "payable": false,
      "stateMutability": "view",
      "type": "function"
    },
    {
      "constant": false,
      "inputs": [
        {
          "internalType": "address",
          "name": "_currentPoolAddress",
          "type": "address"
        },
        {
          "internalType": "address",
          "name": "_token",
          "type": "address"
        },
        {
          "internalType": "uint256",
          "name": "_balance",
          "type": "uint256"
        },
        {
          "internalType": "uint256",
          "name": "_denorm",
          "type": "uint256"
        }
      ],
      "name": "bindToken",
      "outputs": [],
      "payable": false,
      "stateMutability": "nonpayable",
      "type": "function"
    },
    {
      "constant": false,
      "inputs": [
        {
          "internalType": "address",
          "name": "_currentPoolAddress",
          "type": "address"
        },
        {
          "internalType": "address",
          "name": "_token",
          "type": "address"
        },
        {
          "internalType": "uint256",
          "name": "_balance",
          "type": "uint256"
        },
        {
          "internalType": "uint256",
          "name": "_denorm",
          "type": "uint256"
        }
      ],
      "name": "rebindToken",
      "outputs": [],
      "payable": false,
      "stateMutability": "nonpayable",
      "type": "function"
    },
    {
      "constant": false,
      "inputs": [
        {
          "internalType": "address",
          "name": "_currentPoolAddress",
          "type": "address"
        },
        {
          "internalType": "address",
          "name": "_token",
          "type": "address"
        }
      ],
      "name": "unbindToken",
      "outputs": [],
      "payable": false,
      "stateMutability": "nonpayable",
      "type": "function"
    },
    {
      "constant": false,
      "inputs": [
        {
          "internalType": "address",
          "name": "_currentPoolAddress",
          "type": "address"
        },
        {
          "internalType": "uint256",
          "name": "_fee",
          "type": "uint256"
        }
      ],
      "name": "setFee",
      "outputs": [],
      "payable": false,
      "stateMutability": "nonpayable",
      "type": "function"
    },
    {
      "constant": true,
      "inputs": [
        {
          "internalType": "address",
          "name": "_currentPoolAddress",
          "type": "address"
        }
      ],
      "name": "swapFee",
      "outputs": [
        {
          "internalType": "uint256",
          "name": "",
          "type": "uint256"
        }
      ],
      "payable": false,
      "stateMutability": "view",
      "type": "function"
    },
    {
      "constant": false,
      "inputs": [
        {
          "internalType": "address",
          "name": "_currentPoolAddress",
          "type": "address"
        },
        {
          "internalType": "bool",
          "name": "_public",
          "type": "bool"
        }
      ],
      "name": "setPublic",
      "outputs": [],
      "payable": false,
      "stateMutability": "nonpayable",
      "type": "function"
    },
    {
      "constant": true,
      "inputs": [
        {
          "internalType": "address",
          "name": "_currentPoolAddress",
          "type": "address"
        }
      ],
      "name": "isPublic",
      "outputs": [
        {
          "internalType": "bool",
          "name": "",
          "type": "bool"
        }
      ],
      "payable": false,
      "stateMutability": "view",
      "type": "function"
    }
  ],
  "bytecode": "0x608060405234801561001057600080fd5b50604051610eef380380610eef8339818101604052602081101561003357600080fd5b505160008054600160a060020a0319908116331790915560018054600160a060020a0390931692909116919091179055610e7d806100726000396000f3fe608060405234801561001057600080fd5b50600436106100d95760003560e060020a90048063b8518d231161008b578063b8518d2314610206578063b9d6a8a514610236578063c43f363e14610272578063c45a0155146102e8578063d7c980ca146102f0578063da3e33971461032c578063e55156b514610362578063feaef1771461038e576100d9565b80631049334f146100de5780634f054afe1461011e5780637367bac41461014c5780637380726f146101865780638da5cb5b146101b45780639a06b113146101d8578063a6ae80e2146101e0575b600080fd5b61010c600480360360408110156100f457600080fd5b50600160a060020a03813581169160200135166103bc565b60408051918252519081900360200190f35b61010c6004803603604081101561013457600080fd5b50600160a060020a038135811691602001351661044f565b6101726004803603602081101561016257600080fd5b5035600160a060020a03166104ae565b604080519115158252519081900360200190f35b6101726004803603604081101561019c57600080fd5b50600160a060020a0381358116916020013516610523565b6101bc610582565b60408051600160a060020a039092168252519081900360200190f35b6101bc610591565b61010c600480360360208110156101f657600080fd5b5035600160a060020a03166106b6565b6102346004803603604081101561021c57600080fd5b50600160a060020a03813516906020013515156106f8565b005b6102346004803603608081101561024c57600080fd5b50600160a060020a038135811691602081013590911690604081013590606001356107c6565b6102986004803603602081101561028857600080fd5b5035600160a060020a03166108f5565b60408051602080825283518183015283519192839290830191858101910280838360005b838110156102d45781810151838201526020016102bc565b505050509050019250505060405180910390f35b6101bc610a09565b6102346004803603608081101561030657600080fd5b50600160a060020a03813581169160208101359091169060408101359060600135610a18565b6102346004803603606081101561034257600080fd5b50600160a060020a03813581169160208101359091169060400135610b47565b6102346004803603604081101561037857600080fd5b50600160a060020a038135169060200135610c7b565b610234600480360360408110156103a457600080fd5b50600160a060020a0381358116916020013516610d15565b60008083905080600160a060020a031663f8b2cb4f846040518263ffffffff1660e060020a0281526004018082600160a060020a0316600160a060020a0316815260200191505060206040518083038186803b15801561041b57600080fd5b505afa15801561042f573d6000803e3d6000fd5b505050506040513d602081101561044557600080fd5b5051949350505050565b60008083905080600160a060020a031663f1b8a9b7846040518263ffffffff1660e060020a0281526004018082600160a060020a0316600160a060020a0316815260200191505060206040518083038186803b15801561041b57600080fd5b60008082905080600160a060020a031663fde924f76040518163ffffffff1660e060020a02815260040160206040518083038186803b1580156104f057600080fd5b505afa158015610504573d6000803e3d6000fd5b505050506040513d602081101561051a57600080fd5b50519392505050565b60008083905080600160a060020a0316632f37b624846040518263ffffffff1660e060020a0281526004018082600160a060020a0316600160a060020a0316815260200191505060206040518083038186803b15801561041b57600080fd5b600054600160a060020a031681565b60008054600160a060020a031633146105de5760405160e560020a62461bcd028152600401808060200182810382526021815260200180610e286021913960400191505060405180910390fd5b600154604080517fd556c5dc0000000000000000000000000000000000000000000000000000000081529051600160a060020a0390921691600091839163d556c5dc9160048082019260209290919082900301818787803b15801561064257600080fd5b505af1158015610656573d6000803e3d6000fd5b505050506040513d602081101561066c57600080fd5b505160408051600160a060020a0383168152905191925082917f83a48fbcfc991335314e74d0496aab6a1987e992ddc85dddbcc4d6dd6ef2e9fc9181900360200190a15091505090565b60008082905080600160a060020a031663d4cadf686040518163ffffffff1660e060020a02815260040160206040518083038186803b1580156104f057600080fd5b600054600160a060020a031633146107445760405160e560020a62461bcd028152600401808060200182810382526021815260200180610e286021913960400191505060405180910390fd5b604080517f49b59552000000000000000000000000000000000000000000000000000000008152821515600482015290518391600160a060020a038316916349b595529160248082019260009290919082900301818387803b1580156107a957600080fd5b505af11580156107bd573d6000803e3d6000fd5b50505050505050565b600054600160a060020a031633146108125760405160e560020a62461bcd028152600401808060200182810382526021815260200180610e286021913960400191505060405180910390fd5b604080517f3fdddaa2000000000000000000000000000000000000000000000000000000008152600160a060020a038581166004830152602482018590526044820184905291518692831691633fdddaa291606480830192600092919082900301818387803b15801561088457600080fd5b505af1158015610898573d6000803e3d6000fd5b505060408051600160a060020a03808a168252881660208201528082018790526060810186905290517f9a99b71c4cf232ef1b26dafda743fa55ea29e8675f5fb3b087e4521d9d6589299350908190036080019150a15050505050565b6060600082905080600160a060020a031663cc77828d6040518163ffffffff1660e060020a02815260040160006040518083038186803b15801561093857600080fd5b505afa15801561094c573d6000803e3d6000fd5b505050506040513d6000823e601f3d908101601f19168201604052602081101561097557600080fd5b810190808051604051939291908464010000000082111561099557600080fd5b9083019060208201858111156109aa57600080fd5b82518660208202830111640100000000821117156109c757600080fd5b82525081516020918201928201910280838360005b838110156109f45781810151838201526020016109dc565b50505050905001604052505050915050919050565b600154600160a060020a031681565b600054600160a060020a03163314610a645760405160e560020a62461bcd028152600401808060200182810382526021815260200180610e286021913960400191505060405180910390fd5b604080517fe4e1e538000000000000000000000000000000000000000000000000000000008152600160a060020a03858116600483015260248201859052604482018490529151869283169163e4e1e53891606480830192600092919082900301818387803b158015610ad657600080fd5b505af1158015610aea573d6000803e3d6000fd5b505060408051600160a060020a03808a168252881660208201528082018790526060810186905290517f194cdbdc6669374257b08c6948a71e61892de19c5d86896c9e7e26fc71c1ec6f9350908190036080019150a15050505050565b600054600160a060020a03163314610b935760405160e560020a62461bcd028152600401808060200182810382526021815260200180610e286021913960400191505060405180910390fd5b604080517f095ea7b3000000000000000000000000000000000000000000000000000000008152600160a060020a038481166004830152602482018490529151859283169163095ea7b39160448083019260209291908290030181600087803b158015610bff57600080fd5b505af1158015610c13573d6000803e3d6000fd5b505050506040513d6020811015610c2957600080fd5b505060408051600160a060020a0380871682528516602082015280820184905290517fc532e6b60637d86dd3fe55f7548ed169de9c79cfdef610593bea3569f079bc659181900360600190a150505050565b600054600160a060020a03163314610cc75760405160e560020a62461bcd028152600401808060200182810382526021815260200180610e286021913960400191505060405180910390fd5b600082905080600160a060020a03166334e19907836040518263ffffffff1660e060020a02815260040180828152602001915050600060405180830381600087803b1580156107a957600080fd5b600054600160a060020a03163314610d615760405160e560020a62461bcd028152600401808060200182810382526021815260200180610e286021913960400191505060405180910390fd5b604080517fcf5e7bd3000000000000000000000000000000000000000000000000000000008152600160a060020a0383811660048301529151849283169163cf5e7bd391602480830192600092919082900301818387803b158015610dc557600080fd5b505af1158015610dd9573d6000803e3d6000fd5b505060408051600160a060020a0380881682528616602082015281517f851fb1ea978289f547bc8cf664ad4d224d0dcd927c0fcb8a62d887aed42343c49450908190039091019150a150505056fe4f6e6c79206f776e65722063616e2063616c6c20746869732066756e6374696f6ea265627a7a72315820c5b40402a26697a7729d6b9bb7f98e32d038b74a1d7f3c75803ba39cb5c2ba5664736f6c634300050c0032",
  "source": "pragma solidity 0.5.12;\n\nimport \"./BFactory.sol\";\nimport \"./BPool.sol\";\nimport \"./test/TToken.sol\";\n\n\ncontract PoolManager {\n    address public owner;\n    address public factory;\n\n    event PoolCreated(address bpoolAddress);\n    event TokenBound(address currentPool, address token, uint balance, uint denorm);\n    event TokenRebound(address currentPool, address token, uint balance, uint denorm);\n    event TokenUnbound(address currentPool, address token);\n\n    event TokenApproved(address token, address currentPoolAddress, uint balance);\n\n    modifier onlyOwner {\n        require(msg.sender == owner, \"Only owner can call this function\");\n        _;\n    }\n\n    constructor(address _factory) public {\n        owner = msg.sender;\n        factory = _factory;\n    }\n\n    //@dev creates a new smart pool that will be controlled by pool manager\n    function createPool()\n        public\n        onlyOwner\n        returns(BPool)\n    {\n        BFactory bfactory = BFactory(factory);\n        BPool bpool = bfactory.newBPool();\n        address poolAddress = address(bpool);\n        emit PoolCreated(poolAddress);\n        return bpool;\n    }\n\n    //@dev approves a new token for binding by a smart pool\n    function approveToken(address _token, address _currentPoolAddress, uint _balance)\n        public\n        onlyOwner\n    {\n        TToken token = TToken(_token);\n        token.approve(_currentPoolAddress, _balance);\n        emit TokenApproved(_token, _currentPoolAddress, _balance);\n    }\n\n    //@dev checks whether a token is bound to the current smart pool\n    function checkToken(address _currentPoolAddress, address _token)\n        external\n        view\n        returns(bool)\n    {\n        BPool currentPool = BPool(_currentPoolAddress);\n        return currentPool.isBound(_token);\n    }\n\n    //@dev returns the normalized weight of a token\n    function normalizedWeight(address _currentPoolAddress, address _token)\n        external\n        view\n        returns(uint)\n    {\n        BPool currentPool = BPool(_currentPoolAddress);\n        return currentPool.getNormalizedWeight(_token);\n    }\n\n    //@dev returns the balance of a token\n    function tokenBalance(address _currentPoolAddress, address _token)\n        external\n        view\n        returns(uint)\n    {\n        BPool currentPool = BPool(_currentPoolAddress);\n        return currentPool.getBalance(_token);\n    }\n\n    //@dev returns array of tokens bound to the current smart pool\n    function currentTokens(address _currentPoolAddress)\n        public\n        view\n        returns(address[] memory)\n    {\n        BPool currentPool = BPool(_currentPoolAddress);\n        return currentPool.getCurrentTokens();\n    }\n\n    //@dev binds a new token to the smart pool that is current being managed\n    function bindToken(address _currentPoolAddress, address _token, uint _balance, uint _denorm)\n        public\n        onlyOwner\n    {\n        BPool currentPool = BPool(_currentPoolAddress);\n        currentPool.bind(_token, _balance, _denorm);\n        emit TokenBound(_currentPoolAddress, _token, _balance, _denorm);\n    }\n\n    //@dev rebinds a token to the smart pool, changing the weight and/or balance\n    function rebindToken(address _currentPoolAddress, address _token, uint _balance, uint _denorm)\n        public\n        onlyOwner\n    {\n        BPool currentPool = BPool(_currentPoolAddress);\n        currentPool.rebind(_token, _balance, _denorm);\n        emit TokenRebound(_currentPoolAddress, _token, _balance, _denorm);\n    }\n\n    //@dev unbinds a token from the smart pool\n    function unbindToken(address _currentPoolAddress, address _token)\n        public\n        onlyOwner\n    {\n        BPool currentPool = BPool(_currentPoolAddress);\n        currentPool.unbind(_token);\n        emit TokenUnbound(_currentPoolAddress, _token);\n    }\n\n    //@dev sets the swap fee\n    function setFee(address _currentPoolAddress, uint _fee)\n        public\n        onlyOwner\n    {\n        BPool currentPool = BPool(_currentPoolAddress);\n        currentPool.setSwapFee(_fee);\n    }\n\n    //@dev returns the swap fee of the current smart pool\n    function swapFee(address _currentPoolAddress)\n        public\n        view\n        returns(uint)\n    {\n        BPool currentPool = BPool(_currentPoolAddress);\n        return currentPool.getSwapFee();\n    }\n\n    //@dev sets the current pool public\n    function setPublic(address _currentPoolAddress, bool _public)\n        public\n        onlyOwner\n    {\n        BPool currentPool = BPool(_currentPoolAddress);\n        currentPool.setPublicSwap(_public);\n    }\n\n    //@dev returns true if the current smart pool is public\n    function isPublic(address _currentPoolAddress)\n        public\n        view\n        returns(bool)\n    {\n        BPool currentPool = BPool(_currentPoolAddress);\n        return currentPool.isPublicSwap();\n    }\n}\n",
  "sourcePath": "/Users/jerryfireman/Projects/pool-manager/contracts/PoolManager.sol",
  "compiler": {
    "name": "solc",
    "version": "0.5.12+commit.7709ece9.Emscripten.clang"
  },
  "schemaVersion": "3.1.0",
  "updatedAt": "2020-06-17T19:07:10.363Z",
  "networkType": "ethereum",
  "devdoc": {
    "methods": {}
  },
  "userdoc": {
    "methods": {}
  }
}